HDR20211231                    000200011098NATIONAL AIDS COUNCIL                   202201260112120100                                                                                                                                                                                                                                                                                                                                                                
TAX      GFAD06AB      KASONDE	      CLARA                    63948103G630197605050000202101040000202112310000128382975000141372000000000000000000000000000000000000000000000000000000000000000000000000000000000000000000644292000000000000000000757400000000761263000000000000000000000000000000000000000000000000000000320706890000000000000000000000000000000000000000000000000000000000000000000000000000000000000000000000000000000000000000000000000000000000000000
TAX      MN004         Machakata     Josiah                   83060327N830196904190000202101010000202112310000234453945000399873800000000000000000000000000000000000000000000000000000000000000000000000000000000000000000702864000000000000000000149952000000806263000000000000000000576832000000000000000000000000000000724451730000000000000000000000000000000000000000000000000000000000000000000000000000000000000000000000000000000000000000000000000000000000000000
TAX      MN277         GWATIDZO      WELLINGTON               59063910B420198408050000202101010000202112310000125260555000218109800000000000000000000000000000000000000000000000000000000000000000000000000000000000000000702864000000000000000000817920000000806263000000000000000000211368000000000000000000000000000000322825930000000000000000000000000000000000000000000000000000000000000000000000000000000000000000000000000000000000000000000000000000000000000000
TAX      NM001         Charandura    Angela Dzivaidzo         22110662C770196703180000202101010000202112310000154401358000262332000000000000000000000000000000000000000000000000000000000000000000000000000000000000000000702864000000000000000000983758800000806263000000262332000000618312000000000000000000000000000000398820530000000000000000000000000000000000000000000000000000000000000000000000000000000000000000000000000000000000000000000000000000000000000000
TAX      NM002         Machiya       Angela                   63855544Z450197201040000202101010000202112310000179897200000291492000000000000000000000000000000000000000000000000000000000000000000000000000000000000000000702864000000000000000000109308130000806263000000000000000000000000000000000000000000000000000000537102540000000000000000000000000000000000000000000000000000000000000000000000000000000000000000000000000000000000000000000000000000000000000000
TAX      NM003         Mpofu         Amon                     08442132E530196403090000202101010000202112310000452719984000685540400000000000000000171385200000000000000000000000000000108000000000000000000000000000000000392880000000000000000000257076000000806263000000000000000000328384000000000000000000000000000000185404632000000000000000000000000000720000000000000000000000000000000000000000000000000000000000000000000000000000000000000000000000000000000000
TAX      NM004         Yekeye        Raymond                  08473485J420196604200000202101010000202112310000465729343000685540400000000000000000476070000000000000000000000000000000108000000000000000000000000000000000392880000000000000000000257076000000806263000000000000000000164617600000000000000000000000000000203946871000000000000000000000000000000000000000000000000000000000000000000000000000000000000000000000000000000000000000000000000000000000000000
TAX      NM0047        Mukono        Gadi                     83067474G830197102050000202101010000202112310000153104740000262332000000000000000000000000000000000000000000000000000000000000000000000000000000000000000000702864000000000000000000983758800000806263000000262332000000444896000000000000000000000000000000399226290000000000000000000000000000000000000000000000000000000000000000000000000000000000000000000000000000000000000000000000000000000000000000
TAX      NM005         Karimanzira   Caroline                 43044117H750197303060000202101010000202112310000192525133000305200400000000000000000000000000000000000000000000000000000000000000000000000000000000000000000702864000000000000000000114446300000806263000000305194800000505200000000000000000000000000000000547989260000000000000000000000000000000000000000000000000000000000000000000000000000000000000000000000000000000000000000000000000000000000000000
TAX      NM006         Tafireyi      Loveness                 291647771T07197603030000202101010000202112310000145694333000236073800000000000000000000000000000000000000000000000000000000000000000000000000000000000000000702864000000000000000000885243000000806263000000000000000000716320000000000000000000000000000000400479730000000000000000000000000000000000000000000000000000000000000000000000000000000000000000000000000000000000000000000000000000000000000000
TAX      NM008         Mashoko       Chipo                    73757532P470196903030000202101010000202112310000161802448000262332000000000000000000000000000000000000000000000000000000000000000000000000000000000000000000702864000000000000000000983758800000806263000000262332000000576832000000000000000000000000000000427637690000000000000000000000000000000000000000000000000000000000000000000000000000000000000000000000000000000000000000000000000000000000000000
TAX      NM009         Nyamutswa     Everisto                 43049433L420197605160000202101010000202112310000434153272000685540400000000000000000000000000000000000000000000000000000108000000000000000000000000000000000392880000000000000000000257076000000806263000000000000000000116482800000000000000000000000000000171960269000000000000000000000000000000000000000357693000000000000000000000000000000000000000000000000000000000000000000000000000000000000000000
TAX      NM010         Nyakudya      Peter                    63181388W320196301100000202101010000202112310000191196577000323920400000000000000000000000000000000000000000000000000000000000000000000000000000000000000000702864000000000000000000121476000000806263000000323920800000501424000000000000000000000000000000471809490000000000000000000000000000720000000000000000000000000000000000000000000000000000000000000000000000000000000000000000000000000000000000
TAX      NM011         Chikomo       Vimbai MAUD              25029349N180196801230000202101010000202112310000298082535000493617800000000000000000000000000000000000000000000000000000000000000000000000000000000000000000196440000000000000000000185111550000806263000000000000000000119013200000000000000000000000000000997036270000000000000000000000000000000000000000000000000000000000000000000000000000000000000000000000000000000000000000000000000000000000000000
TAX      NM012         Manenji       Albert                   29117304S430196507150000202101010000202112310000430508123000685540400000000000000000000000000000000000000000000000000000108000000000000000000000000000000000392880000000000000000000257076150000806263000000000000000000581400000000000000000000000000000000167889241000000000000000000000000000720000000000000000000000000000000000000000000000000000000000000000000000000000000000000000000000000000000000
TAX      NM013         Machenya      Enelesi                  79080579A790197101240000202101010000202112310000135784506000236073800000000000000000655760000000000000000000000000000000000000000000000000000000000000000000702864000000000000000000888720000000806263000000000000000000218672000000000000000000000000000000380697020000000000000000000000000000000000000000000000000000000000000000000000000000000000000000000000000000000000000000000000000000000000000000
TAX      NM014         Manjengwa     Sebastine                43026470B800197011170000202101010000202112310000202074820000323920400000000000000000000000000000000000000000000000000000000000000000000000000000000000000000702864000000000000000000121475530000806263000000323920800000256376000000000000000000000000000000587042200000000000000000000000000000000000000000000000000000000000000000000000000000000000000000000000000000000000000000000000000000000000000000
TAX      NM015         Charungwa     Aaron                    58148447H260197401160000202101010000202112310000154832945000269287600000000000000000000000000000000000000000000000000000000000000000000000000000000000000000702864000000000000000000100980230000806263000000269287200000218672000000000000000000000000000000421916990000000000000000000000000000000000000000000000000000000000000000000000000000000000000000000000000000000000000000000000000000000000000000
TAX      NM016         Nyandoro      Florence Zvisinei        47062127K800196805210000202101010000202112310000190726576000323920400000000000000000000000000000000000000000000000000000000000000000000000000000000000000000702864000000000000000000121476000000806263000000323920800000116744000000000000000000000000000000564086149999000000000000000000000000000000000000000000000000000000000000000000000000000000000000000000000000000000000000000000000000000000000000
TAX      NM017         Kakomwe       Gift                     48015409L480196206030000202101010000202112310000190736576000323920400000000000000000000000000000000000000000000000000000000000000000000000000000000000000000702864000000000000000000121476000000806263000000323920800000583520000000000000000000000000000000465923240000000000000000000000000000720000000000000000000000000000000000000000000000000000000000000000000000000000000000000000000000000000000000
TAX      NM018         Mashingaidze  Jonathan                 27087053Y270196702270000202101010000202112310000191206675000323920400000000000000000000000000000000000000000000000000000000000000000000000000000000000000000702864000000000000000000121475530000806263000000323920800000539128000000000000000000000000000000544064310000000000000000000000000000000000000000000000000000000000000000000000000000000000000000000000000000000000000000000000000000000000000000
TAX      NM019         Shumba        Sibongile                35001931B030196211280000202101010000202112310000234453948000399873800000000000000000000000000000000000000000000000000000000000000000000000000000000000000000702864000000000000000000149952000000806263000000399873600000716320000000000000000000000000000000661894110000000000000000000000000000720000000000000000000000000000000000000000000000000000000000000000000000000000000000000000000000000000000000
TAX      NM020         Soko          Millicent                08340410M080196404070000202101010000202112310000190046575000323920400000000000000000000000000000000000000000000000000000000000000000000000000000000000000000702864000000000000000000121475530000806263000000323920800000618312000000000000000000000000000000461644170000000000000000000000000000720000000000000000000000000000000000000000000000000000000000000000000000000000000000000000000000000000000000
TAX      NM021         Munyama       Lawrence                 75017473F750196001270000202105010000202112310000792665980000161960000000000000000000000000000000000000000000000000000000000000000000000000000000000000000000292860000000000000000000506150000000570436000000134967000000550120000000000000000000000000000000121771520000000000000000000000000000480000000000000000000000000000000000000000000000000000000000000000000000000000000000000000000000000000000000
TAX      NM021         Munyama       Lawrence                 75017473F750196001270000202101010000202104300000111405164000161960400000000000000000000000000000000000000000000000000000000000000000000000000000000000000000410004000000000000000000708610000000235827000000188953800000667624000000000000000000000000000000332255269999000000000000000000000000240000000000000000000000000000000000000000000000000000000000000000000000000000000000000000000000000000000000
TAX      NM022         Ngwenya       Wilfred                  08354844B560196412230000202101010000202112310000238115247000399873800000000000000000000000000000000000000000000000000000000000000000000000000000000000000000702864000000000000000000149952000000806263000000399873600000256376000000000000000000000000000000660033430000000000000000000000000000720000000000000000000000000000000000000000000000000000000000000000000000000000000000000000000000000000000000
TAX      NM023         Karuru        Aggrippa                 63131245S450196111130000202101010000202112310000201255476000323920400000000000000000000000000000000000000000000000000000000000000000000000000000000000000000702864000000000000000000121475530000806263000000323920800000256376000000000000000000000000000000509928459999000000000000000000000000720000000000000000000000000000000000000000000000000000000000000000000000000000000000000000000000000000000000
TAX      NM024         Mudhombo      Mercy                    15115737Y150197802240000202101010000202112310000190046575000323920400000000000000000000000000000000000000000000000000000000000000000000000000000000000000000702864000000000000000000121475530000806263000000323920800000256376000000000000000000000000000000554443880000000000000000000000000000000000000000000000000000000000000000000000000000000000000000000000000000000000000000000000000000000000000000
TAX      NM025         Dembedza      Agnes Doris              29115510S270196407280000202101010000202112310000201254815000323920400000000000000000000000000000000000000000000000000000000000000000000000000000000000000000702864000000000000000000121475530000806263000000323920800000114611200000000000000000000000000000464104670000000000000000000000000000720000000000000000000000000000000000000000000000000000000000000000000000000000000000000000000000000000000000
TAX      NM026         Dube          Medelina                 24053620N390196106050000202101010000202112310000354804032000548402200000000000000000228501000000000000000000000000000000108000000000000000000000000000000000392880000000000000000000205656000000806263000000000000000000192827600000000000000000000000000000134962730000000000000000000000000000720000000000000000000000000000000000000000000000000000000000000000000000000000000000000000000000000000000000
TAX      NM027         Tembo         Edson                    150922130D15196909200000202101010000202112310000144703066000236073800000000000000000000000000000000000000000000000000000000000000000000000000000000000000000702864000000000000000000885243000000806263000000236073600000576832000000000000000000000000000000351614470000000000000000000000000000000000000000000000000000000000000000000000000000000000000000000000000000000000000000000000000000000000000000
TAX      NM029         Chahwanda     Easter                   48083223X850197803230000202101010000202112310000167027638000291492000000000000000000000000000000000000000000000000000000000000000000000000000000000000000000702864000000000000000000109308130000806263000000000000000000109336000000000000000000000000000000485076970000000000000000000000000000000000000000000000000000000000000000000000000000000000000000000000000000000000000000000000000000000000000000
TAX      NM030         Chimukoko     Angeline                 58177439W450197803260000202101010000202112310000167027633000291492000000000000000000000000000000000000000000000000000000000000000000000000000000000000000000702864000000000000000000109308130000806263000000291492000000000000000000000000000000000000000000480199460000000000000000000000000000000000000000000000000000000000000000000000000000000000000000000000000000000000000000000000000000000000000000
TAX      NM031         Huwa          Shorai                   63998030A150197404240000202101010000202112310000182825937000291492000000000000000000165620450000000000000000000000000000000000000000000000000000000000000000702864000000000000000000109308000000806263000000000000000000329936000000000000000000000000000000577674230000000000000000000000000000000000000000000000000000000000000000000000000000000000000000000000000000000000000000000000000000000000000000
TAX      NM032         Mika          Margaret                 29199326X830198104250000202101010000202112310000238254109000399873800000000000000000000000000000000000000000000000000000000000000000000000000000000000000000702864000000000000000000149952050000806263000000000000000000147040000000000000000000000000000000760285580000000000000000000000000000000000000000000000000000000000000000000000000000000000000000000000000000000000000000000000000000000000000000
TAX      NM034         Karidozo      Fidias                   15094292N150197111170000202101010000202112310000143383594000247212000000000000000000000000000000000000000000000000000000000000000000000000000000000000000000702864000000000000000000920963800000806263000000245592000000256376000000000000000000000000000000372085500000000000000000000000000000000000000000000000000000000000000000000000000000000000000000000000000000000000000000000000000000000000000000
TAX      NM035         Mkwananzi     Sibahle                  67096818Y030198112310000202101010000202112310000153093137000262332000000000000000000000000000000000000000000000000000000000000000000000000000000000000000000702864000000000000000000983760000000806263000000262332000000218672000000000000000000000000000000410834950000000000000000000000000000000000000000000000000000000000000000000000000000000000000000000000000000000000000000000000000000000000000000
TAX      NM036         Lunga         Byron                    08746837F280198107080000202101010000202112310000135320398000236073800000000000000000000000000000000000000000000000000000000000000000000000000000000000000000702864000000000000000000885240000000806263000000236073600000444896000000000000000000000000000000337597089999000000000000000000000000000000000000000000000000000000000000000000000000000000000000000000000000000000000000000000000000000000000000
TAX      NM037         Abureni       Isaiah                   29046249J020195805120000202101010000202112310000305526296000493617800000000000000000000000000000000000000000000000000000108000000000000000000000000000000000117144000000000000000000185112000000806263000000000000000000237512000000000000000000000000000000100618837000000000000000000000000000720000000000000000000000000000000000000000000000000000000000000000000000000000000000000000000000000000000000
TAX      NM039         Dube          Petros                   08284207X560196404050000202101010000202112310000135281454000236073800000000000000000000000000000000000000000000000000000000000000000000000000000000000000000702864000000000000000000885243000000806263000000236073600000180968000000000000000000000000000000276908940000000000000000000000000000720000000000000000000000000000000000000000000000000000000000000000000000000000000000000000000000000000000000
TAX      NM040         Machisvo      Renassance Ngwaru        26087694N260197405070000202101010000202112310000135320395000236073800000000000000000000000000000000000000000000000000000000000000000000000000000000000000000702864000000000000000000885243000000806263000000236073600000291940000000000000000000000000000000345474209999000000000000000000000000000000000000000000000000000000000000000000000000000000000000000000000000000000000000000000000000000000000000
TAX      NM041         Manenji       Cosmas                   43032117P430196804160000202101010000202112310000135320397000236073800000000000000000000000000000000000000000000000000000000000000000000000000000000000000000702864000000000000000000885243000000806263000000236073600000387976000000000000000000000000000000340528350000000000000000000000000000000000000000000000000000000000000000000000000000000000000000000000000000000000000000000000000000000000000000
TAX      NM042         Mashayamombe  James                    63889141S040197607120000202101010000202106300000789636940000137325600000000000000000000000000000000000000000000000000000000000000000000000000000000000000000351432000000000000000000514980000000135000000000137325600000202456000000000000000000000000000000226147840000000000000000000000000000000000000000000000000000000000000000000000000000000000000000000000000000000000000000000000000000000000000000
TAX      NM043         Matenga       Dorothy                  04090398J040197808140000202101010000202112310000135320392000236073800000000000000000000000000000000000000000000000000000000000000000000000000000000000000000702864000000000000000000885243000000806263000000236073600000256376000000000000000000000000000000347305740000000000000000000000000000000000000000000000000000000000000000000000000000000000000000000000000000000000000000000000000000000000000000
TAX      NM044         Mhene         Evans                    68038178Q680197104120000202101010000202112310000234453943000399873800000000000000000151467270000000000000000000000000000000000000000000000000000000000000000702864000000000000000000149952050000806263000000000000000000716320000000000000000000000000000000805073460000000000000000000000000000000000000000000000000000000000000000000000000000000000000000000000000000000000000000000000000000000000000000
TAX      NM045         Moyo          Londile                  28064581D280197207310000202101010000202112310000153093140000262332000000000000000000000000000000000000000000000000000000000000000000000000000000000000000000702864000000000000000000983760000000806263000000262332000000199536000000000000000000000000000000411820470000000000000000000000000000000000000000000000000000000000000000000000000000000000000000000000000000000000000000000000000000000000000000
TAX      NM046         Muganyi       Tavaruva                 83106032S830197604140000202101010000202112310000153093139000262332000000000000000000000000000000000000000000000000000000000000000000000000000000000000000000702864000000000000000000983758800000806263000000262332000000256376000000000000000000000000000000408893250000000000000000000000000000000000000000000000000000000000000000000000000000000000000000000000000000000000000000000000000000000000000000
TAX      NM048         Muzengairi    George                   27092538K270197211080000202101010000202112310000150687872000262332000000000000000000000000000000000000000000000000000000000000000000000000000000000000000000702864000000000000000000983678800000806263000000000000000000218672000000000000000000000000000000415474829999000000000000000000000000000000000000000000000000000000000000000000000000000000000000000000000000000000000000000000000000000000000000
TAX      NM049         Ncube         Nkosana                  53025859C530196909280000202101010000202112310000135320392000236073800000000000000000000000000000000000000000000000000000000000000000000000000000000000000000702864000000000000000000885240000000806263000000236073600000109336000000000000000000000000000000354878380000000000000000000000000000000000000000000000000000000000000000000000000000000000000000000000000000000000000000000000000000000000000000
TAX      NM050         Ndlovu        Ranias                   54033184W540197103230000202101010000202112310000191386575000323920400000000000000000000000000000000000000000000000000000000000000000000000000000000000000000702864000000000000000000121475530000806263000000323920800000256376000000000000000000000000000000559274580000000000000000000000000000000000000000000000000000000000000000000000000000000000000000000000000000000000000000000000000000000000000000
TAX      NM051         Nyamudandara  George                   08575105Q490197103220000202101010000202112310000135320392000236073800000000000000000000000000000000000000000000000000000000000000000000000000000000000000000702864000000000000000000885243000000806263000000236073600000218672000000000000000000000000000000349247490000000000000000000000000000000000000000000000000000000000000000000000000000000000000000000000000000000000000000000000000000000000000000
TAX      NM052         Nyungu        Pamela                   22170735Z040197802050000202101010000202112310000150724798000262332000000000000000000000000000000000000000000000000000000000000000000000000000000000000000000702864000000000000000000983758800000806263000000262332000000429792000000000000000000000000000000395275300000000000000000000000000000000000000000000000000000000000000000000000000000000000000000000000000000000000000000000000000000000000000000
TAX      NM053         Gadzai        Pedzisai                 7518998520T8196808210000202101010000202112310000135320398000236073800000000000000000000000000000000000000000000000000000000000000000000000000000000000000000702864000000000000000000885243000000806263000000236073600000576832000000000000000000000000000000330802280000000000000000000000000000000000000000000000000000000000000000000000000000000000000000000000000000000000000000000000000000000000000000
TAX      NM054         Ncube         Dingaan                  41020297D410196510130000202101010000202112310000310123054000493617800000000000000000137116000000000000000000000000000000108000000000000000000000000000000000196440000000000000000000185111550000806263000000000000000000218672000000000000000000000000000000111525922000000000000000000000000000720000000000000000000000000000000000000000000000000000000000000000000000000000000000000000000000000000000000
TAX      NM055         Taruvinga     Stanford                 07108908Y070197701290000202101010000202112310000135320394000236073800000000000000000000000000000000000000000000000000000000000000000000000000000000000000000702864000000000000000000885243000000806263000000236073600000218672000000000000000000000000000000349247510000000000000000000000000000000000000000000000000000000000000000000000000000000000000000000000000000000000000000000000000000000000000000
TAX      NM056         Muzondiona    Adonija                  63501254B040196303150000202101010000202112310000310123052000493617800000000000000000000000000000000000000000000000000000108000000000000000000000000000000000196440000000000000000000185111550000806263000000000000000000314664000000000000000000000000000000105382383000000000000000000000000000720000000000000000000000000000000000000000000000000000000000000000000000000000000000000000000000000000000000
TAX      NM057         Chiro         Sukai                    42160663G220197807070000202101010000202112310000234453947000399873800000000000000000000000000000000000000000000000000000000000000000000000000000000000000000702864000000000000000000149952050000806263000000399873600000256376000000000000000000000000000000726539780000000000000000000000000000000000000000000000000000000000000000000000000000000000000000000000000000000000000000000000000000000000000000
TAX      NM058         Darikwa       Ngoni Elahmercy          75168755S750197906070000202101010000202112310000192798071000305200400000000000000000000000000000000000000000000000000000000000000000000000000000000000000000702864000000000000000000114455530000806263000000000000000000934992000000000000000000000000000000537837850000000000000000000000000000000000000000000000000000000000000000000000000000000000000000000000000000000000000000000000000000000000000000
TAX      NM059         Makonese      Makonese                 38077411P380196712190000202101010000202112310000167027634000291492000000000000000000000000000000000000000000000000000000000000000000000000000000000000000000702864000000000000000000109308130000806263000000291492000000256376000000000000000000000000000000466996100000000000000000000000000000000000000000000000000000000000000000000000000000000000000000000000000000000000000000000000000000000000000000
TAX      NM060         Muzulu        Edgar                    34045427Y130197208030000202101010000202112310000293890221000465120000000000000000000000000000000000000000000000000000000108000000000000000000000000000000000196440000000000000000000174420000000806263000000000000000000106274800000000000000000000000000000101671042999000000000000000000000000000000000000000000000000000000000000000000000000000000000000000000000000000000000000000000000000000000000000
TAX      NM061         Zizhou        Agrippa                  22094175G220196602170000202101010000202112310000304452159000493617800000000000000000000000000000000000000000000000000000108000000000000000000000000000000000196440000000000000000000185111550000806263000000000000000000224557800000000000000000000000000000976154269999000000000000000000000000000000000000723600000000000000000000000000000000000000000000000000000000000000000000000000000000000000000000
TAX      NM062         Mupa          Prosper                  08325231N260196607240000202101010000202101150000195745200000000000000000000000000000000000000000000000000000000000000000000000000000000000000000000000000000585720000000000000000000124960000000225000000000333228000000631800000000000000000000000000000000757613000000000000000000000000000000000000000000000000000000000000000000000000000000000000000000000000000000000000000000000000000000000000000000
TAX      NM063         Dube          Wilfred                  29130998C120196609070000202101010000202112310000310123058000493617800000000000000000000000000000000000000000000000000000108000000000000000000000000000000000196440000000000000000000185111550000806263000000000000000000142507200000000000000000000000000000107079784000000000000000000000000000000000000000000000000000000000000000000000000000000000000000000000000000000000000000000000000000000000000000
TAX      NM064         Hanyane       Ronald                   08295203Z560196101190000202101010000202112310000201254815000323920400000000000000000000000000000000000000000000000000000000000000000000000000000000000000000702864000000000000000000121476000000806263000000323920800000218672000000000000000000000000000000511867650000000000000000000000000000720000000000000000000000000000000000000000000000000000000000000000000000000000000000000000000000000000000000
TAX      NM066         Nyamurera     David                    77000662W420196604090000202101010000202112310000310123062000493617800000000000000000000000000000000000000000000000000000108000000000000000000000000000000000196440000000000000000000185112000000806263000000000000000000854728000000000000000000000000000000110017039000000000000000000000000000000000000000000000000000000000000000000000000000000000000000000000000000000000000000000000000000000000000000
TAX      NM067         Makoni        Evos                     80006375A800196408300000202101010000202112310000310123052000493617800000000000000000000000000000000000000000000000000000108000000000000000000000000000000000196440000000000000000000185111550000806263000000000000000000142507200000000000000000000000000000996637820000000000000000000000000000720000000000000000000000000000000000000000000000000000000000000000000000000000000000000000000000000000000000
TAX      NM068         Hwani         Jacob                    2806793B2800197209180000202101010000202112310000735503650000125395600000000000000000000000000000000000000000000000000000000000000000000000000000000000000000702864000000000000000000470280000000806263000000125395200000000000000000000000000000000000000000159399990000000000000000000000000000000000000000000000000000000000000000000000000000000000000000000000000000000000000000000000000000000000000000
TAX      NM069         Ndlovu        Sikhululekile            39011004P390197509060000202101010000202112310000676477440000115848000000000000000000000000000000000000000000000000000000000000000000000000000000000000000000702864000000000000000000434402500000806263000000115848000000416800000000000000000000000000000000119799340000000000000000000000000000000000000000000000000000000000000000000000000000000000000000000000000000000000000000000000000000000000000000
TAX      NM071         Bovora        Collen Mujuru            22210045C270198402110000202101010000202112310000594321190000101556000000000000000000577022600000000000000000000000000000000000000000000000000000000000000000702864000000000000000000380876300000806263000000101556000000000000000000000000000000000000000000134873880000000000000000000000000000000000000000000000000000000000000000000000000000000000000000000000000000000000000000000000000000000000000000
TAX      NM072         Mugwinyi      Shame                    42108024Q420196502280000202101010000202112310000587367390000101556000000000000000000000000000000000000000000000000000000000000000000000000000000000000000000702864000000000000000000380880000000806263000000101556000000000000000000000000000000000000000000440648400000000000000000000000000000720000000000000000000000000000000000000000000000000000000000000000000000000000000000000000000000000000000000
TAX      NM073         Chavunduka    Yvonne                   75151082H180196105030000202101010000202112310000201254815000323920400000000000000000000000000000000000000000000000000000000000000000000000000000000000000000702864000000000000000000121476000000806263000000323920800000000000000000000000000000000000000000523129260000000000000000000000000000720000000000000000000000000000000000000000000000000000000000000000000000000000000000000000000000000000000000
TAX      NM074         Dube          Freeman                  67079619D670197407060000202101010000202112310000297582885000493617800000000000000000000000000000000000000000000000000000000000000000000000000000000000000000196440000000000000000000185111550000806263000000000000000000118756000000000000000000000000000000105015358000000000000000000000000000000000000000000000000000000000000000000000000000000000000000000000000000000000000000000000000000000000000000
TAX      NM075         Mafoko        Graham                   49071622T490197706120000202101010000202112310000190716573000323920400000000000000000000000000000000000000000000000000000000000000000000000000000000000000000702864000000000000000000121475530000806263000000323920800000000000000000000000000000000000000000570062580000000000000000000000000000000000000000000000000000000000000000000000000000000000000000000000000000000000000000000000000000000000000000
TAX      NM076         Moyo          Alice                    08552339V280196806220000202101010000202112310000190046576000323920400000000000000000000000000000000000000000000000000000000000000000000000000000000000000000702864000000000000000000121476000000806263000000323920800000501424000000000000000000000000000000541823740000000000000000000000000000000000000000000000000000000000000000000000000000000000000000000000000000000000000000000000000000000000000000
TAX      NM078         Zowa          Ennie                    50058713T500197103230000202101010000202112310000238115305000399873800000000000000000000000000000000000000000000000000000000000000000000000000000000000000000702864000000000000000000149952050000806263000000399873600000218672000000000000000000000000000000736135370000000000000000000000000000000000000000000000000000000000000000000000000000000000000000000000000000000000000000000000000000000000000000
TAX      NM079         Nyamwanza     Beauty                   29111675Z580196502200000202104010000202112310000584074530000241970400000000000000000000000000000000000000000000000000000000000000000000000000000000000000000000000000000000000000000790063000000000000000000000000000000579000000000000000000000000000000000117128099999000000000000000000000000540000000000000000000000000000000000000000000000000000000000000000000000000000000000000000000000000000000000
TAX      NM079         Nyamwanza     Beauty                   29111675Z580196502200000202101010000202101310000567537150000000000000000000000000000000000000000000000000000000000000000000000000000000000000000000000000000000000000000000000000000756156000000225000000000000000000000396980000000000000000000000000000000168604530000000000000000000000000000600000000000000000000000000000000000000000000000000000000000000000000000000000000000000000000000000000000000
TAX      NM080         Sirewu        Caroline                 63377660K420196009200000202101010000202112310000306353649000483940400000000000000000000000000000000000000000000000000000000000000000000000000000000000000000196440000000000000000000181476150000806263000000000000000000467356000000000000000000000000000000966873750000000000000000000000000000720000000000157080700000000000000000000000000000000000000000000000000000000000000000000000000000000000000000
TAX      NM081         Muzhingi      Marko                    63395167P270196210280000202101010000202112310000238115304000399873800000000000000000000000000000000000000000000000000000000000000000000000000000000000000000702864000000000000000000149952050000806263000000399873600000129315200000000000000000000000000000606639650000000000000000000000000000720000000000000000000000000000000000000000000000000000000000000000000000000000000000000000000000000000000000
TAX      NM082         Kabvure       George                   63442550S380196411100000202101010000202112310000297582885000493617800000000000000000205674000000000000000000000000000000000000000000000000000000000000000000196440000000000000000000185112000000806263000000000000000000908444000000000000000000000000000000102006215000000000000000000000000000720000000000000000000000000000000000000000000000000000000000000000000000000000000000000000000000000000000000
TAX      NM083         Manjengwa     Tamuka                   631068058Q80197811070000202101010000202112310000135320398000236073800000000000000000000000000000000000000000000000000000000000000000000000000000000000000000702864000000000000000000885243000000806263000000236073600000614536000000000000000000000000000000328860530000000000000000000000000000000000000000000000000000000000000000000000000000000000000000000000000000000000000000000000000000000000000000
TAX      NM084         Hove          Owen                     08514824S260196812120000202101010000202112310000169201369000291492000000000000000000552068200000000000000000000000000000000000000000000000000000000000000000702864000000000000000000109308130000806263000000291492000000934992000000000000000000000000000000459785740000000000000000000000000000000000000000000000000000000000000000000000000000000000000000000000000000000000000000000000000000000000000000
TAX      NM085         Mwinga        Douglas                  70065238R710196707120000202101010000202112310000190046577000323920400000000000000000000000000000000000000000000000000000000000000000000000000000000000000000702864000000000000000000121476000000806263000000323920800000676364000000000000000000000000000000532814320000000000000000000000000000000000000000000000000000000000000000000000000000000000000000000000000000000000000000000000000000000000000000
TAX      NM086         Nyamudoka     Veronica                 75142521C500196409240000202101010000202112310000201254812000323920400000000000000000000000000000000000000000000000000000000000000000000000000000000000000000702864000000000000000000121475530000806263000000323920800000539128000000000000000000000000000000495364339999000000000000000000000000720000000000000000000000000000000000000000000000000000000000000000000000000000000000000000000000000000000000
TAX      NM087         Mhlanga       Siduduzile               35010615Q190196810280000202101010000202112310000430403124000685540400000000000000000476070000000000000000000000000000000108000000000000000000000000000000000392880000000000000000000257076000000806263000000000000000000148110400000000000000000000000000000172304878999000000000000000000000000000000000000553470000000000000000000000000000000000000000000000000000000000000000000000000000000000000000000
TAX      NM088         Moyo          Douglas                  08359067R190196407070000202101010000202112310000244470981000399873800000000000000000000000000000000000000000000000000000000000000000000000000000000000000000702864000000000000000000149952050000806263000000399873600000614536000000000000000000000000000000670045970000000000000000000000000000720000000000000000000000000000000000000000000000000000000000000000000000000000000000000000000000000000000000
TAX      NM089         Shumba        Mambeu                   67006321G670196601190000202101010000202112310000330724518000493617800000000000000000000000000000000000000000000000000000108000000000000000000000000000000000196440000000000000000000185111550000806263000000000000000000106274800000000000000000000000000000118257755000000000000000000000000000000000000000000000000000000000000000000000000000000000000000000000000000000000000000000000000000000000000000
TAX      NM090         Masunga       Munyengetero             83034432R830196711090000202101010000202112310000250509348000399873800000000000000000000000000000000000000000000000000000000000000000000000000000000000000000702864000000000000000000149952050000806263000000399873600000218672000000000000000000000000000000786361240000000000000000000000000000000000000000000000000000000000000000000000000000000000000000000000000000000000000000000000000000000000000000
TAX      NM091         Chandinga     Mangazana                63804581E800197208210000202101010000202112310000192083803000305200400000000000000000000000000000000000000000000000000000000000000000000000000000000000000000702864000000000000000000114455530000806263000000305200800000000000000000000000000000000000000000572412520000000000000000000000000000000000000000000000000000000000000000000000000000000000000000000000000000000000000000000000000000000000000000
TAX      NM092         Chisewe       Slyvia Felistas          63925239E340197504300000202101010000202112310000148985872000236073800000000000000000134132740000000000000000000000000000000000000000000000000000000000000000702864000000000000000000901663000000806263000000000000000000542904000000000000000000000000000000435838140000000000000000000000000000000000000000000000000000000000000000000000000000000000000000000000000000000000000000000000000000000000000000
TAX      NM093         Matsiga       Tonderai                 05054868W710197309200000202101010000202112310000628707270000101556000000000000000000000000000000000000000000000000000000000000000000000000000000000000000000702864000000000000000000380876300000806263000000101556000000135800000000000000000000000000000000121876270000000000000000000000000000000000000000000000000000000000000000000000000000000000000000000000000000000000000000000000000000000000000000
TAX      NM095         Muchengeta    Charles                  14115045P140197612120000202101010000202112310000628222350000101556000000000000000000000000000000000000000000000000000000000000000000000000000000000000000000702864000000000000000000380876300000806263000000101556000000000000000000000000000000000000000000128745100000000000000000000000000000000000000000000000000000000000000000000000000000000000000000000000000000000000000000000000000000000000000000
TAX      NM096         Tausa         Virginia                 08438288B220196505210000202101010000202112310000211856262000323920400000000000000000000000000000000000000000000000000000000000000000000000000000000000000000702864000000000000000000121475530000806263000000323920800000147040000000000000000000000000000000553775100000000000000000000000000000720000000000000000000000000000000000000000000000000000000000000000000000000000000000000000000000000000000000
TAX      NM097         Maquina       Simbarashe               75332391H750198104040000202101010000202112310000250086224000399873800000000000000000000000000000000000000000000000000000000000000000000000000000000000000000702864000000000000000000149952050000806263000000399873600000934992000000000000000000000000000000747945409999000000000000000000000000000000000000000000000000000000000000000000000000000000000000000000000000000000000000000000000000000000000000
TAX      NM098         Dzingirai     Rachael                  08745530K260198005140000202101010000202112310000226580911000323920400000000000000000000000000000000000000000000000000000000000000000000000000000000000000000702864000000000000000000121476000000806263000000323920800000429792000000000000000000000000000000666455549999000000000000000000000000000000000000000000000000000000000000000000000000000000000000000000000000000000000000000000000000000000000000
TAX      NM099         Manyepa       Itai                     47156202Q470198308180000202101010000202112310000628222300000101556000000000000000000000000000000000000000000000000000000000000000000000000000000000000000000702864000000000000000000380876300000806263000000101556000000000000000000000000000000000000000000128745080000000000000000000000000000000000000000000000000000000000000000000000000000000000000000000000000000000000000000000000000000000000000000
TAX      NM100         Moyo          Mtokozisi                08190220M410196304070000202101010000202112310000253747512000399873800000000000000000000000000000000000000000000000000000000000000000000000000000000000000000702864000000000000000000149952000000806263000000399873600000558008000000000000000000000000000000700853710000000000000000000000000000720000000000000000000000000000000000000000000000000000000000000000000000000000000000000000000000000000000000
TAX      NM101         Mfiri         Charles                  66004396H660196206120000202101010000202112310000209352835000323920400000000000000000000000000000000000000000000000000000000000000000000000000000000000000000702864000000000000000000121475530000806263000000323920800000716320000000000000000000000000000000548633750000000000000000000000000000720000000000000000000000000000000000000000000000000000000000000000000000000000000000000000000000000000000000
TAX      NM102         Ngwenya       Sibonile                 281857964F19197711100000202101010000202112310000141251571000236073800000000000000000000000000000000000000000000000000000000000000000000000000000000000000000702864000000000000000000885243000000806263000000236073600000614536000000000000000000000000000000347993550000000000000000000000000000000000000000000000000000000000000000000000000000000000000000000000000000000000000000000000000000000000000000
TAX      NM103         Chikede       Jacob                    26053605H260197008200000202101010000202112310000198144597000323920400000000000000000000000000000000000000000000000000000000000000000000000000000000000000000702864000000000000000000121475530000806263000000323920800000180968000000000000000000000000000000587520760000000000000000000000000000000000000000000000000000000000000000000000000000000000000000000000000000000000000000000000000000000000000000
TAX      NM104         Mangava       Slavas                   70178340D380196701020000202101010000202112310000141222237000236073800000000000000000000000000000000000000000000000000000000000000000000000000000000000000000702864000000000000000000885243000000806263000000236073600000180968000000000000000000000000000000370216550000000000000000000000000000000000000000000000000000000000000000000000000000000000000000000000000000000000000000000000000000000000000000
TAX      NM105         Mugauri       Stewart                  43028910D470196409080000202101010000202112310000159651438000262332000000000000000000000000000000000000000000000000000000000000000000000000000000000000000000702864000000000000000000983758800000806263000000262332000000218672000000000000000000000000000000360317690000000000000000000000000000720000000000000000000000000000000000000000000000000000000000000000000000000000000000000000000000000000000000
TAX      NM106         Zanamwe       Sherperd                 05037946C680196711250000202101010000202112310000201324813000323920400000000000000000000000000000000000000000000000000000000000000000000000000000000000000000702864000000000000000000121475530000806263000000323920800000218672000000000000000000000000000000586280170000000000000000000000000000000000000000000000000000000000000000000000000000000000000000000000000000000000000000000000000000000000000000
TAX      NM107         Magijo        Zebhedia                 22127070M270196509300000202101010000202112310000653153350000564120000000000000000000128209100000000000000000000000000000000000000000000000000000000000000000702864000000000000000000423117500000806263000000112824000000000000000000000000000000000000000000993138600000000000000000000000000000720000000000000000000000000000000000000000000000000000000000000000000000000000000000000000000000000000000000
TAX      NM108         Samanga       Ethina                   22080739C830196311230000202101010000202112310000201254785000323920400000000000000000000000000000000000000000000000000000000000000000000000000000000000000000702864000000000000000000121475530000806263000000323920800000574984000000000000000000000000000000493517650000000000000000000000000000720000000000000000000000000000000000000000000000000000000000000000000000000000000000000000000000000000000000
TAX      NM109         Chisedzi      Shelton                  75143028D440196808150000202101010000202112310000201254816000323920400000000000000000000000000000000000000000000000000000000000000000000000000000000000000000702864000000000000000000121475530000806263000000323920800000218672000000000000000000000000000000586027830000000000000000000000000000000000000000000000000000000000000000000000000000000000000000000000000000000000000000000000000000000000000000
TAX      NM110         Makurumidze   Regina                   08755600F270198010300000202101010000202112310000135320392000236073800000000000000000000000000000000000000000000000000000000000000000000000000000000000000000702864000000000000000000885243000000806263000000236073600000462340000000000000000000000000000000336698600000000000000000000000000000000000000000000000000000000000000000000000000000000000000000000000000000000000000000000000000000000000000000
TAX      NM111         Mambudzi      Davison                  66028664L660196511250000202101010000202112310000238115308000399873800000000000000000000000000000000000000000000000000000000000000000000000000000000000000000702864000000000000000000149952050000806263000000000000000000000000000000000000000000000000000000687652419999000000000000000000000000720000000000000000000000000000000000000000000000000000000000000000000000000000000000000000000000000000000000
TAX      NM112         Moyo          Sikhosini                28058630K280197001250000202101010000202112310000190046574000323920400000000000000000000000000000000000000000000000000000000000000000000000000000000000000000702864000000000000000000121475530000806263000000323920800000373896000000000000000000000000000000548391600000000000000000000000000000000000000000000000000000000000000000000000000000000000000000000000000000000000000000000000000000000000000000
TAX      NM113         Moyo          Takawira                 03101610P280198104040000202101010000202112310000190246580000323920400000000000000000000000000000000000000000000000000000000000000000000000000000000000000000702864000000000000000000121476000000806263000000323920800000429792000000000000000000000000000000546233790000000000000000000000000000000000000000000000000000000000000000000000000000000000000000000000000000000000000000000000000000000000000000
TAX      NM114         Nyathi        Sinatra                  63542862C280196404050000202101010000202112310000304452151000493617800000000000000000000000000000000000000000000000000000108000000000000000000000000000000000196440000000000000000000185111550000806263000000000000000000237512000000000000000000000000000000104267503999000000000000000000000000720000000000000000000000000000000000000000000000000000000000000000000000000000000000000000000000000000000000
TAX      NM115         Singu         Christine                89188205X250196306040000202101010000202112310000150724797000262332000000000000000000000000000000000000000000000000000000000000000000000000000000000000000000702864000000000000000000983758800000806263000000262332000000793328000000000000000000000000000000302393200000000000000000000000000000720000000000000000000000000000000000000000000000000000000000000000000000000000000000000000000000000000000000
TAX      NM116         Zhou          Mufaro                   28188017E030197811180000202101010000202112310000293011181000474444000000000000000000000000000000000000000000000000000000000000000000000000000000000000000000196440000000000000000000178506380000806263000000000000000000144581600000000000000000000000000000951587250000000000000000000000000000000000000000000000000000000000000000000000000000000000000000000000000000000000000000000000000000000000000000
TAX      NM117         Nyereyemhuka  Nyasha                   59056735C320198310170000202101010000202112310000201254817000323920400000000000000000000000000000000000000000000000000000000000000000000000000000000000000000644292000000000000000000121475050000686144000000323920800000249072000000000000000000000000000000582783910000000000000000000000000000000000000000000000000000000000000000000000000000000000000000000000000000000000000000000000000000000000000000
TAX      NM118         Mpofu         Silibele                 08397250V530196607180000202101010000202112310000303135750000493617800000000000000000000000000000000000000000000000000000000000000000000000000000000000000000196440000000000000000000185111550000806263000000000000000000856024000000000000000000000000000000102682009000000000000000000000000000000000000000000000000000000000000000000000000000000000000000000000000000000000000000000000000000000000000000
TAX      NM119         Mulaudzi      Edward                   02025979A020196201110000202101010000202112310000201324816000323920400000000000000000000000000000000000000000000000000000000000000000000000000000000000000000702864000000000000000000121476000000806263000000215947200000125544800000000000000000000000000000462618480000000000000000000000000000720000000000000000000000000000000000000000000000000000000000000000000000000000000000000000000000000000000000
TAX      NM121         Mushove       Blessed                  07138214C070198408240000202101010000202112310000784580610000125395600000000000000000000000000000000000000000000000000000000000000000000000000000000000000000702864000000000000000000470276000000806263000000000000000000000000000000000000000000000000000000178439570000000000000000000000000000000000000000000000000000000000000000000000000000000000000000000000000000000000000000000000000000000000000000
TAX      NM122         Ngwenya       Zwelempi                 56019578V560196803310000202101010000202112310000201254818000323920400000000000000000000000000000000000000000000000000000000000000000000000000000000000000000702864000000000000000000121476000000806263000000323920800000444896000000000000000000000000000000574377129999000000000000000000000000000000000000000000000000000000000000000000000000000000000000000000000000000000000000000000000000000000000000
TAX      NM124         Chimuka       Joshat                   292090445L04198109240000202101010000202112310000136085383000236073800000000000000000000000000000000000000000000000000000000000000000000000000000000000000000702864000000000000000000885243000000806263000000236073600000256376000000000000000000000000000000349669560000000000000000000000000000000000000000000000000000000000000000000000000000000000000000000000000000000000000000000000000000000000000000
TAX      NM126         Chibaya       Bernard                  18077109F180198105050000202101010000202112310000135320403000236073800000000000000000000000000000000000000000000000000000000000000000000000000000000000000000702864000000000000000000885243000000806263000000236073600000234398000000000000000000000000000000348437639999000000000000000000000000000000000000000000000000000000000000000000000000000000000000000000000000000000000000000000000000000000000000
TAX      NM127         Hlatywayo     Sibert                   75337104F130198303200000202101010000202112310000238115304000399873800000000000000000000000000000000000000000000000000000000000000000000000000000000000000000702864000000000000000000149952050000806263000000399873600000968632000000000000000000000000000000697512430000000000000000000000000000000000000000000000000000000000000000000000000000000000000000000000000000000000000000000000000000000000000000
TAX      NM128         Manatsa       Rumbidzai                67101747F670198106130000202101010000202112310000199052773000323920400000000000000000000000000000000000000000000000000000000000000000000000000000000000000000702864000000000000000000121475530000806263000000323920800000539128000000000000000000000000000000561585990000000000000000000000000000000000000000000000000000000000000000000000000000000000000000000000000000000000000000000000000000000000000000
TAX      NM129         Nyamambi      Elimon                   23009237P230197411010000202101010000202104300000634857950000000000000000000000000000000000000000000000000000000000000000000000000000000000000000000000000000234288000000000000000000404920000000900000000000107973600000733360000000000000000000000000000000175439220000000000000000000000000000000000000000000000000000000000000000000000000000000000000000000000000000000000000000000000000000000000000000
TAX      NM130         Chimusoro     Martha Claudia           22090675C220196605210000202101010000202112310000191196574000323920400000000000000000000000000000000000000000000000000000000000000000000000000000000000000000702864000000000000000000121476000000806263000000323920800000109336000000000000000000000000000000566162010000000000000000000000000000000000000000000000000000000000000000000000000000000000000000000000000000000000000000000000000000000000000000
TAX      NM131         Musandaira    Cloudious                37003395F710196911190000202101010000202112310000201354813000323920400000000000000000000000000000000000000000000000000000000000000000000000000000000000000000702864000000000000000000121475530000806263000000323920800000576832000000000000000000000000000000567943080000000000000000000000000000000000000000000000000000000000000000000000000000000000000000000000000000000000000000000000000000000000000000
TAX      NM133         Bowora        Yeukai                   70042095L220196603100000202101010000202112310000201284102000323920400000000000000000134967000000000000000000000000000000000000000000000000000000000000000000702864000000000000000000121475530000806263000000323920800000541056000000000000000000000000000000618186240000000000000000000000000000000000000000000000000000000000000000000000000000000000000000000000000000000000000000000000000000000000000000
TAX      NM134         Govere        Trust                    631166963W18198012050000202101010000202112310000297371664000493617800000000000000000280464550000000000000000000000000000000000000000000000000000000000000000196440000000000000000000185111550000806263000000000000000000165652800000000000000000000000000000108563947000000000000000000000000000000000000000000000000000000000000000000000000000000000000000000000000000000000000000000000000000000000000000
TAX      NM135         Mudzindiko    Bekezela                 08566462W500197003200000202101010000202112310000190046574000323920400000000000000000000000000000000000000000000000000000000000000000000000000000000000000000702864000000000000000000121475530000806263000000323920800000119006800000000000000000000000000000506358740000000000000000000000000000000000000000000000000000000000000000000000000000000000000000000000000000000000000000000000000000000000000000
TAX      NM136         Mac_Isaac     Priscilla                58137333C380197202050000202101010000202112310000201594813000323920400000000000000000000000000000000000000000000000000000000000000000000000000000000000000000702864000000000000000000121476000000806263000000323920800000218672000000000000000000000000000000587253350000000000000000000000000000000000000000000000000000000000000000000000000000000000000000000000000000000000000000000000000000000000000000
TAX      NM137         Dube          Thusanang                28086707D280198107080000202101010000202112310000135320397000236073800000000000000000000000000000000000000000000000000000000000000000000000000000000000000000702864000000000000000000885240000000806263000000236073600000218672000000000000000000000000000000349247600000000000000000000000000000000000000000000000000000000000000000000000000000000000000000000000000000000000000000000000000000000000000000
TAX      NM138         Kanembera     Francis                  63275209A630196201300000202101010000202112310000234453945000399873800000000000000000000000000000000000000000000000000000000000000000000000000000000000000000702864000000000000000000149952000000806263000000000000000000859584000000000000000000000000000000635730010000000000000000000000000000720000000000000000000000000000000000000000000000000000000000000000000000000000000000000000000000000000000000
TAX      NM139         Masara        Gwatirisa                12038069G120197104160000202101010000202112310000190226576000323920400000000000000000000000000000000000000000000000000000000000000000000000000000000000000000702864000000000000000000121475530000806263000000323920800000576832000000000000000000000000000000538589290000000000000000000000000000000000000000000000000000000000000000000000000000000000000000000000000000000000000000000000000000000000000000
TAX      NM140         Mutsimba      Happiness                22184235Y660198008190000202101010000202112310000167027633000291492000000000000000000000000000000000000000000000000000000000000000000000000000000000000000000702864000000000000000000109308130000806263000000291492000000825656000000000000000000000000000000437678180000000000000000000000000000000000000000000000000000000000000000000000000000000000000000000000000000000000000000000000000000000000000000
TAX      NM142         Mujuma        Eria                     07125520E070197802180000202101010000202112310000190236577000323920400000000000000000000000000000000000000000000000000000000000000000000000000000000000000000702864000000000000000000121476000000806263000000323920800000180968000000000000000000000000000000559012170000000000000000000000000000000000000000000000000000000000000000000000000000000000000000000000000000000000000000000000000000000000000000
TAX      NM144         Makwanya      London                   75352276X750198409180000202101010000202112310000201674816000323920400000000000000000000000000000000000000000000000000000000000000000000000000000000000000000702864000000000000000000121475530000806263000000323920800000559808000000000000000000000000000000569973430000000000000000000000000000000000000000000000000000000000000000000000000000000000000000000000000000000000000000000000000000000000000000
TAX      NM145         Muchakati     Itai                     22134144B220197211060000202101010000202112310000144001394000236073800000000000000000000000000000000000000000000000000000000000000000000000000000000000000000702864000000000000000000885243000000806263000000236073600000218672000000000000000000000000000000378293650000000000000000000000000000000000000000000000000000000000000000000000000000000000000000000000000000000000000000000000000000000000000000
TAX      NM146         Mudzikati     Williard                 24125072D260198211150000202101010000202102010000159316150000000000000000000000000000000000000000000000000000000000000000000000000000000000000000000000000000585720000000000000000000101230000000225000000000269934000000360980000000000000000000000000000000594794700000000000000000000000000000000000000000000000000000000000000000000000000000000000000000000000000000000000000000000000000000000000000000
TAX      NM147         Muyengwa      Mirirai                  29217143N480198306160000202101010000202112310000167027631000291492000000000000000000000000000000000000000000000000000000000000000000000000000000000000000000702864000000000000000000109308130000806263000000291492000000614536000000000000000000000000000000448550850000000000000000000000000000000000000000000000000000000000000000000000000000000000000000000000000000000000000000000000000000000000000000
TAX      NM148         Kwaramba      Emmanuel Tatenda         70223108P150198505040000202101010000202112310000735503650000125395600000000000000000000000000000000000000000000000000000000000000000000000000000000000000000702864000000000000000000470276000000806263000000125395200000000000000000000000000000000000000000159400120000000000000000000000000000000000000000000000000000000000000000000000000000000000000000000000000000000000000000000000000000000000000000
TAX      NM152         Marime A.     Gwarega                  22128291P220197005170000202101010000202112310000735503640000125395600000000000000000000000000000000000000000000000000000000000000000000000000000000000000000702864000000000000000000470276000000806263000000125395200000510576000000000000000000000000000000133105450000000000000000000000000000000000000000000000000000000000000000000000000000000000000000000000000000000000000000000000000000000000000000
TAX      NM153         Chipinduro    Happymore                75327324A750198109260000202101010000202112310000735503640000125395600000000000000000000000000000000000000000000000000000000000000000000000000000000000000000702864000000000000000000470276000000806263000000125395200000000000000000000000000000000000000000159400120000000000000000000000000000000000000000000000000000000000000000000000000000000000000000000000000000000000000000000000000000000000000000
TAX      NM156         Kunene        Sikhumbuzo               41043490N410197512100000202101010000202112310000735503650000125395600000000000000000000000000000000000000000000000000000000000000000000000000000000000000000702864000000000000000000470280000000806263000000125395200000000000000000000000000000000000000000159399990000000000000000000000000000000000000000000000000000000000000000000000000000000000000000000000000000000000000000000000000000000000000000
TAX      NM157         Mataruse      Allan                    22166505B220197411170000202101010000202112310000733405040000125395600000000000000000000000000000000000000000000000000000000000000000000000000000000000000000702864000000000000000000470276000000806263000000125395200000000000000000000000000000000000000000158751640000000000000000000000000000000000000000000000000000000000000000000000000000000000000000000000000000000000000000000000000000000000000000
TAX      NM158         Mhlanga       Musa                     35011469T350197712060000202101010000202112310000735503620000125395600000000000000000000000000000000000000000000000000000000000000000000000000000000000000000702864000000000000000000470280000000806263000000125395200000000000000000000000000000000000000000159399979999000000000000000000000000000000000000000000000000000000000000000000000000000000000000000000000000000000000000000000000000000000000000
TAX      NM159         Sibanda       Sherperd                 21040772D210198105030000202101010000202102080000800555300000000000000000000000000000000000000000000000000000000000000000000000000000000000000000000000000000117144000000000000000000783800000000450000000000208992000000000000000000000000000000000000000000221862300000000000000000000000000000000000000000000000000000000000000000000000000000000000000000000000000000000000000000000000000000000000000000
TAX      NM160         Mutsamwira    Memory                   63953680T340197605010000202101010000202112310000135320394000236073800000000000000000000000000000000000000000000000000000000000000000000000000000000000000000702864000000000000000000885243000000806263000000236073600000256376000000000000000000000000000000347305760000000000000000000000000000000000000000000000000000000000000000000000000000000000000000000000000000000000000000000000000000000000000000
TAX      NM161         Singano       Alexander                29042298P260196101180000202101010000202107100000387789830000626976000000000000000000000000000000000000000000000000000000000000000000000000000000000000000000410004000000000000000000274330000000209810000000000000000000000000000000000000000000000000000000503244900000000000000000000000000000420000000000000000000000000000000000000000000000000000000000000000000000000000000000000000000000000000000000
TAX      NM162         Wandika       George                   68055065W680197711060000202101010000202112310000735503570000125395600000000000000000000000000000000000000000000000000000000000000000000000000000000000000000702864000000000000000000470276000000806263000000000000000000188520000000000000000000000000000000153565980000000000000000000000000000000000000000000000000000000000000000000000000000000000000000000000000000000000000000000000000000000000000000
TAX      NM163         Mudekunye     Ongayi                   43023624H470196602090000202101010000202112310000110187953000191196000000000000000000000000000000000000000000000000000000000000000000000000000000000000000000702864000000000000000000716998800000806263000000191194800000000000000000000000000000000000000000276951120000000000000000000000000000000000000000000000000000000000000000000000000000000000000000000000000000000000000000000000000000000000000000
TAX      NM164         Charumbira    Sikhangezile             03073701D030197404020000202101010000202112310000135320392000236073800000000000000000000000000000000000000000000000000000000000000000000000000000000000000000702864000000000000000000885243000000806263000000236073600000505200000000000000000000000000000000334491300000000000000000000000000000000000000000000000000000000000000000000000000000000000000000000000000000000000000000000000000000000000000000
TAX      NM165         Chivandire    Rhodha Fireyi            58213483Z070198406230000202101010000202112310000201254817000323920400000000000000000000000000000000000000000000000000000000000000000000000000000000000000000702864000000000000000000121475530000806263000000323920800000576832000000000000000000000000000000567582600000000000000000000000000000000000000000000000000000000000000000000000000000000000000000000000000000000000000000000000000000000000000000
TAX      NM166         Gatsi         Getrude                  22066537Q470196211270000202101010000202112310000201484816000323920400000000000000000000000000000000000000000000000000000000000000000000000000000000000000000702864000000000000000000121475530000806263000000323920800000211264000000000000000000000000000000513078500000000000000000000000000000720000000000000000000000000000000000000000000000000000000000000000000000000000000000000000000000000000000000
TAX      NM168         Hove          Sara                     12056339Q670197404030000202101010000202112310000190046577000323920400000000000000000000000000000000000000000000000000000000000000000000000000000000000000000702864000000000000000000121476000000806263000000323920800000218672000000000000000000000000000000556385460000000000000000000000000000000000000000000000000000000000000000000000000000000000000000000000000000000000000000000000000000000000000000
TAX      NM169         Mpilo         Maboyi                   63803845E020197304100000202101010000202112310000190046577000323920400000000000000000000000000000000000000000000000000000000000000000000000000000000000000000702864000000000000000000121476000000806263000000323920800000429792000000000000000000000000000000545512780000000000000000000000000000000000000000000000000000000000000000000000000000000000000000000000000000000000000000000000000000000000000000
TAX      NM170         Mpofu         Khulekhani               67098142M670197909300000202101010000202112310000735503610000125395600000000000000000000000000000000000000000000000000000000000000000000000000000000000000000702864000000000000000000470276000000806263000000125395200000000000000000000000000000000000000000159400110000000000000000000000000000000000000000000000000000000000000000000000000000000000000000000000000000000000000000000000000000000000000000
TAX      NM171         Jaravani      Dennis                   27120147V270197604090000202101010000202112310000190316576000323920400000000000000000000000000000000000000000000000000000000000000000000000000000000000000000702864000000000000000000121475530000806263000000323920800000444896000000000000000000000000000000545708450000000000000000000000000000000000000000000000000000000000000000000000000000000000000000000000000000000000000000000000000000000000000000
TAX      NM173         Maphosa       Sherperd                 08111637W440196010060000202101010000202112310000664618670000112824000000000000000000000000000000000000000000000000000000000000000000000000000000000000000000702864000000000000000000423117500000806263000000112824000000000000000000000000000000000000000000640300200000000000000000000000000000720000000000000000000000000000000000000000000000000000000000000000000000000000000000000000000000000000000000
TAX      NM174         Masaina       Annah                    83006078X830196302020000202101010000202112310000587367390000101556000000000000000000000000000000000000000000000000000000000000000000000000000000000000000000702864000000000000000000380876300000806263000000101556000000000000000000000000000000000000000000440649400000000000000000000000000000720000000000000000000000000000000000000000000000000000000000000000000000000000000000000000000000000000000000
TAX      NM175         Masenda       Joseph                   80019913Q800196812230000202101010000202112310000672821850000112824000000000000000000000000000000000000000000000000000000000000000000000000000000000000000000702864000000000000000000423117500000806263000000000000000000000000000000000000000000000000000000143421080000000000000000000000000000000000000000000000000000000000000000000000000000000000000000000000000000000000000000000000000000000000000000
TAX      NM177         Munogwei      Leo                      12047714Q120197511100000202101010000202112310000668014890000112824000000000000000000000000000000000000000000000000000000000000000000000000000000000000000000702864000000000000000000423117500000806263000000112824000000000000000000000000000000000000000000139064540000000000000000000000000000000000000000000000000000000000000000000000000000000000000000000000000000000000000000000000000000000000000000
TAX      NM178         Musarurwa     Happymore                63299988J470196612240000202101010000202112310000665866690000112824000000000000000000000000000000000000000000000000000000000000000000000000000000000000000000702864000000000000000000423117500000806263000000000000000000000000000000000000000000000000000000141416620000000000000000000000000000000000000000000000000000000000000000000000000000000000000000000000000000000000000000000000000000000000000000
TAX      NM179         Nguyoyembwa   Netsai                   42189999T420198106200000202101010000202112310000665014910000114336000000000000000000000000000000000000000000000000000000000000000000000000000000000000000000702864000000000000000000423117500000806263000000112824000000000000000000000000000000000000000000138292040000000000000000000000000000000000000000000000000000000000000000000000000000000000000000000000000000000000000000000000000000000000000000
TAX      NM180         Raza          Ignatius                 42145803E420197309140000202101010000202112310000666614910000112824000000000000000000000000000000000000000000000000000000000000000000000000000000000000000000702864000000000000000000423120000000806263000000112824000000000000000000000000000000000000000000138703980000000000000000000000000000000000000000000000000000000000000000000000000000000000000000000000000000000000000000000000000000000000000000
TAX      NM181         Tashaya       Ruth                     63848241L240197005280000202101010000202112310000594028340000101556000000000000000000000000000000000000000000000000000000000000000000000000000000000000000000702864000000000000000000380876300000806263000000101556000000253900000000000000000000000000000000106864290000000000000000000000000000000000000000000000000000000000000000000000000000000000000000000000000000000000000000000000000000000000000000
TAX      NM182         Tsvarayi      Joseph                   75367572Y500198306230000202101010000202112310000594028340000101556000000000000000000000000000000000000000000000000000000000000000000000000000000000000000000702864000000000000000000380876300000806263000000101556000000000000000000000000000000000000000000119940130000000000000000000000000000000000000000000000000000000000000000000000000000000000000000000000000000000000000000000000000000000000000000
TAX      NM183         Sahumani      Abraham                  50066318K500197401010000202101010000202112310000661222040000112824000000000000000000000000000000000000000000000000000000000000000000000000000000000000000000702864000000000000000000423117500000806263000000112824000000224000000000000000000000000000000000136161780000000000000000000000000000000000000000000000000000000000000000000000000000000000000000000000000000000000000000000000000000000000000000
TAX      NM185         Dhina         Nhamo                    44032413S440196401010000202101010000202112310000587367450000101556000000000000000000000000000000000000000000000000000000000000000000000000000000000000000000702864000000000000000000380876300000806263000000000000000000256376000000000000000000000000000000334766300000000000000000000000000000720000000000000000000000000000000000000000000000000000000000000000000000000000000000000000000000000000000000
TAX      NM186         Mushanguri    Danger Nhamo             44034576T440196004260000202101010000202112310000662173240000112824000000000000000000000000000000000000000000000000000000000000000000000000000000000000000000702864000000000000000000423117500000806263000000000000000000000000000000000000000000000000000000663055600000000000000000000000000000720000000000000000000000000000000000000000000000000000000000000000000000000000000000000000000000000000000000
TAX      NM187         Chipomho      Enock                    42068791W420196104120000202101010000202112310000732022200000125395600000000000000000000000000000000000000000000000000000000000000000000000000000000000000000702864000000000000000000470276000000806263000000000000000000000000000000000000000000000000000000880390199999000000000000000000000000720000000000000000000000000000000000000000000000000000000000000000000000000000000000000000000000000000000000
TAX      NM188         Mtombeni DunduKhanyisile               08616903Y530198102210000202101010000202112310000135320397000236073800000000000000000000000000000000000000000000000000000000000000000000000000000000000000000702864000000000000000000885243000000806263000000236073600000576832000000000000000000000000000000330802260000000000000000000000000000000000000000000000000000000000000000000000000000000000000000000000000000000000000000000000000000000000000000
TAX      NM189         Chiwa         Lameck                   26117911H260197711280000202101010000202112310000154048704000274658200000000000000000936335500000000000000000000000000000000000000000000000000000000000000000000000000000000000000000102996080000806263000000274658400000256376000000000000000000000000000000426303630000000000000000000000000000000000000000000000000000000000000000000000000000000000000000000000000000000000000000000000000000000000000000
TAX      NM190         Koro          Lenin                    58211332L660198308190000202101010000202112310000201254817000323920400000000000000000000000000000000000000000000000000000000000000000000000000000000000000000702864000000000000000000121475530000806263000000323920800000143264000000000000000000000000000000589911350000000000000000000000000000000000000000000000000000000000000000000000000000000000000000000000000000000000000000000000000000000000000000
TAX      NM191         Maphosa       Sithembiso               08749213N580197810170000202101010000202112310000190046576000323920400000000000000000000000000000000000000000000000000000000000000000000000000000000000000000702864000000000000000000121475530000806263000000323920800000143160000000000000000000000000000000560274500000000000000000000000000000000000000000000000000000000000000000000000000000000000000000000000000000000000000000000000000000000000000000
TAX      NM193         Ncube         Kenneth                  08264384A190196804120000202101010000202112310000190046576000323920400000000000000000000000000000000000000000000000000000000000000000000000000000000000000000702864000000000000000000121476000000806263000000323920800000218672000000000000000000000000000000556385460000000000000000000000000000000000000000000000000000000000000000000000000000000000000000000000000000000000000000000000000000000000000000
TAX      NM194         Mutanga       Basil                    50095857S500198207030000202101010000202112310000154592945000269287600000000000000000000000000000000000000000000000000000000000000000000000000000000000000000702864000000000000000000100980230000806263000000269287200000256376000000000000000000000000000000419110040000000000000000000000000000000000000000000000000000000000000000000000000000000000000000000000000000000000000000000000000000000000000000
TAX      NM195         Mumanyi       Sarah                    42164027N420198005110000202101010000202112310000135560396000236073800000000000000000000000000000000000000000000000000000000000000000000000000000000000000000702864000000000000000000885243000000806263000000236073600000218672000000000000000000000000000000349989100000000000000000000000000000000000000000000000000000000000000000000000000000000000000000000000000000000000000000000000000000000000000000
TAX      NM196         Mupemhi       Owen                     43037123F430196711290000202101010000202112310000202094818000323920400000000000000000000000000000000000000000000000000000000000000000000000000000000000000000702864000000000000000000121476000000806263000000323920800000256376000000000000000000000000000000587114110000000000000000000000000000000000000000000000000000000000000000000000000000000000000000000000000000000000000000000000000000000000000000
TAX      NM197         Kavanji       Chikandiwa               45126367Y450197502200000202101010000202112310000594028380000101556000000000000000000000000000000000000000000000000000000000000000000000000000000000000000000702864000000000000000000380876300000806263000000000000000000000000000000000000000000000000000000122555190000000000000000000000000000000000000000000000000000000000000000000000000000000000000000000000000000000000000000000000000000000000000000
TAX      NM198         Nyawanza      Oliver                   45045972M450198001010000202101010000202112310000669314910000112824000000000000000000000000000000000000000000000000000000000000000000000000000000000000000000702864000000000000000000423117500000806263000000112824000000000000000000000000000000000000000000139399290000000000000000000000000000000000000000000000000000000000000000000000000000000000000000000000000000000000000000000000000000000000000000
TAX      NM199         Chasima       Richard                  47081922B470197203210000202101010000202112310000200594437000323920400000000000000000000000000000000000000000000000000000000000000000000000000000000000000000585720000000000000000000121476000000806263000000323920800000249336000000000000000000000000000000577844759999000000000000000000000000000000000000000000000000000000000000000000000000000000000000000000000000000000000000000000000000000000000000
TAX      NM200         Taramusi      Eric                     11055341Z110198102030000202101010000202112310000190046577000323920400000000000000000000000000000000000000000000000000000000000000000000000000000000000000000702864000000000000000000121476000000806263000000323920800000249336000000000000000000000000000000554806270000000000000000000000000000000000000000000000000000000000000000000000000000000000000000000000000000000000000000000000000000000000000000
TAX      NM202         Simiyoni      Daniel                   08778327J660198001270000202101010000202112310000167027634000291492000000000000000000000000000000000000000000000000000000000000000000000000000000000000000000702864000000000000000000109308000000806263000000291492000000229330000000000000000000000000000000468389000000000000000000000000000000000000000000000000000000000000000000000000000000000000000000000000000000000000000000000000000000000000000000
TAX      NM203         Chipandamira  Amnot                    24026393T240196508100000202101010000202112310000201444815000323920400000000000000000000000000000000000000000000000000000000000000000000000000000000000000000702864000000000000000000121476000000806263000000323920800000180968000000000000000000000000000000514494360000000000000000000000000000720000000000000000000000000000000000000000000000000000000000000000000000000000000000000000000000000000000000
TAX      NM205         Murinda       Kundishora               63820246G250196907020000202101010000202112310000666514880000112824000000000000000000000000000000000000000000000000000000000000000000000000000000000000000000702864000000000000000000423120000000806263000000112824000000000000000000000000000000000000000000138678220000000000000000000000000000000000000000000000000000000000000000000000000000000000000000000000000000000000000000000000000000000000000000
TAX      NM206         Ncube         Abraham                  08698721F730197412120000202101010000202112310000167027633000291492000000000000000000000000000000000000000000000000000000000000000000000000000000000000000000702864000000000000000000109308000000806263000000291492000000256376000000000000000000000000000000466996150000000000000000000000000000000000000000000000000000000000000000000000000000000000000000000000000000000000000000000000000000000000000000
TAX      NM207         Mashonganyika Tafara                   66065229F660198004010000202101010000202112310000669268350000114336000000000000000000000000000000000000000000000000000000000000000000000000000000000000000000702864000000000000000000426880000000806263000000113832000000000000000000000000000000000000000000139264470000000000000000000000000000000000000000000000000000000000000000000000000000000000000000000000000000000000000000000000000000000000000000
TAX      NM208         Pasipamire    Fanuel                   38093081X380197606120000202101010000202112310000682150880000115848000000000000000000000000000000000000000000000000000000000000000000000000000000000000000000702864000000000000000000434402500000806263000000000000000000188520000000000000000000000000000000136713460000000000000000000000000000000000000000000000000000000000000000000000000000000000000000000000000000000000000000000000000000000000000000
TAX      NM209         Nduku         Magie                    631028813H66197701190000202101010000202112310000150724800000262332000000000000000000000000000000000000000000000000000000000000000000000000000000000000000000702864000000000000000000983758800000806263000000262332000000301592000000000000000000000000000000401877610000000000000000000000000000000000000000000000000000000000000000000000000000000000000000000000000000000000000000000000000000000000000000
TAX      NM210         Chiyaka       Godfrey                  26072939A260197308250000202101010000202112310000685188860000116993000000000000000000000000000000000000000000000000000000000000000000000000000000000000000000702864000000000000000000439438000000806263000000117183600000188520000000000000000000000000000000133875639999000000000000000000000000000000000000000000000000000000000000000000000000000000000000000000000000000000000000000000000000000000000000
TAX      NM211         Mapwashike    Munyaradzi               222010773A22198003270000202101010000202112310000190156576000323920400000000000000000000000000000000000000000000000000000000000000000000000000000000000000000702864000000000000000000121475530000806263000000323920800000218672000000000000000000000000000000556782179999000000000000000000000000000000000000000000000000000000000000000000000000000000000000000000000000000000000000000000000000000000000000
TAX      NM212         Mlandwa       Hendriyetha              08610386P350197401010000202101010000202112310000622148250000108702000000000000000000000000000000000000000000000000000000000000000000000000000000000000000000702864000000000000000000398720000000806263000000106320000000358160000000000000000000000000000000108153610000000000000000000000000000000000000000000000000000000000000000000000000000000000000000000000000000000000000000000000000000000000000000
TAX      NM213         Matande       Jorum                    83106025K830198006180000202101010000202112310000666714880000112824000000000000000000000000000000000000000000000000000000000000000000000000000000000000000000702864000000000000000000423120000000806263000000112824000000188520000000000000000000000000000000129020940000000000000000000000000000000000000000000000000000000000000000000000000000000000000000000000000000000000000000000000000000000000000000
TAX      NM215         Masanga       Jeffrey                  63742311V630196811270000202101010000202112310000135320404000236073800000000000000000000000000000000000000000000000000000000000000000000000000000000000000000702864000000000000000000885243000000806263000000000000000000218672000000000000000000000000000000356542200000000000000000000000000000000000000000000000000000000000000000000000000000000000000000000000000000000000000000000000000000000000000000
TAX      NM216         Chinhema      Shungu Faith             631109012F38198103090000202101010000202112310000156043937000269287600000000000000000000000000000000000000000000000000000000000000000000000000000000000000000702864000000000000000000968282300000806263000000258216000000143264000000000000000000000000000000432062060000000000000000000000000000000000000000000000000000000000000000000000000000000000000000000000000000000000000000000000000000000000000000
TAX      NM218         Moyo          Nirold                   08466959Q280196804070000202101010000202112310000594028340000101556000000000000000000000000000000000000000000000000000000000000000000000000000000000000000000702864000000000000000000380880000000806263000000101556000000000000000000000000000000000000000000119940040000000000000000000000000000000000000000000000000000000000000000000000000000000000000000000000000000000000000000000000000000000000000000
TAX      NM219         Mudenda       Jacob                    06045060R060198212080000202101010000202112310000657566130000112824000000000000000000000000000000000000000000000000000000000000000000000000000000000000000000702864000000000000000000423117500000806263000000000000000000000000000000000000000000000000000000139279220000000000000000000000000000000000000000000000000000000000000000000000000000000000000000000000000000000000000000000000000000000000000000
TAX      NM220         Mukuwe        Paska                    04032509L040196706090000202101010000202112310000191256578000323920400000000000000000000000000000000000000000000000000000000000000000000000000000000000000000702864000000000000000000121476000000806263000000323920800000576832000000000000000000000000000000542302270000000000000000000000000000000000000000000000000000000000000000000000000000000000000000000000000000000000000000000000000000000000000000
TAX      NM221         Chikanda      Augustine                42115371B420197001070000202101010000202112310000735503610000125395600000000000000000000000000000000000000000000000000000000000000000000000000000000000000000702864000000000000000000470276000000806263000000125395200000188520000000000000000000000000000000149691319999000000000000000000000000000000000000000000000000000000000000000000000000000000000000000000000000000000000000000000000000000000000000
TAX      NM222         Gwishiri      Godfrey                  75172649A500198006300000202101010000202112310000735503610000125395600000000000000000000000000000000000000000000000000000000000000000000000000000000000000000702864000000000000000000470276000000806263000000125395200000168200000000000000000000000000000000150737810000000000000000000000000000000000000000000000000000000000000000000000000000000000000000000000000000000000000000000000000000000000000000
TAX      NM223         Sakutanda     Charles                  15124125Q490198109210000202101010000202112310000670762230000112824000000000000000000000000000000000000000000000000000000000000000000000000000000000000000000702864000000000000000000423117500000806263000000112824000000188520000000000000000000000000000000130063200000000000000000000000000000000000000000000000000000000000000000000000000000000000000000000000000000000000000000000000000000000000000000
TAX      NM224         Manyenyawafa  Toendepi                 631228703E04198409070000202101010000202112310000663914920000112824000000000000000000000000000000000000000000000000000000000000000000000000000000000000000000702864000000000000000000423117500000806263000000112824000000000000000000000000000000000000000000138008800000000000000000000000000000000000000000000000000000000000000000000000000000000000000000000000000000000000000000000000000000000000000000
TAX      NM225         Ndungwa       Ganizani                 15132989A150198210270000202101010000202112310000190046575000323920400000000000000000000000000000000000000000000000000000000000000000000000000000000000000000702864000000000000000000121476000000806263000000323920800000242450000000000000000000000000000000555160870000000000000000000000000000000000000000000000000000000000000000000000000000000000000000000000000000000000000000000000000000000000000000
TAX      NM226         Chimhanda     Munyaradzi               08691447Z270197801050000202101010000202112310000595162530000101556000000000000000000000000000000000000000000000000000000000000000000000000000000000000000000702864000000000000000000380876300000806263000000000000000000000000000000000000000000000000000000122847250000000000000000000000000000000000000000000000000000000000000000000000000000000000000000000000000000000000000000000000000000000000000000
TAX      NM227         Tamirepi      Patrick                  631275686Y04198403050000202101010000202112310000594028380000101556000000000000000000000000000000000000000000000000000000000000000000000000000000000000000000702864000000000000000000380876300000806263000000000000000000000000000000000000000000000000000000122555190000000000000000000000000000000000000000000000000000000000000000000000000000000000000000000000000000000000000000000000000000000000000000
TAX      NM228         Manyika       Fadzai                   58211757Y130198312200000202101010000202112310000135320398000236073800000000000000000000000000000000000000000000000000000000000000000000000000000000000000000702864000000000000000000885243000000806263000000236073600000991576000000000000000000000000000000309442960000000000000000000000000000000000000000000000000000000000000000000000000000000000000000000000000000000000000000000000000000000000000000
TAX      NM229         Nyamushamba   Alice                    32138185J320198511030000202101010000202112310000135320396000236073800000000000000000000000000000000000000000000000000000000000000000000000000000000000000000702864000000000000000000885240000000806263000000236073600000000000000000000000000000000000000000360509210000000000000000000000000000000000000000000000000000000000000000000000000000000000000000000000000000000000000000000000000000000000000000
TAX      NM230         Chanakira     Letwin                   43144600D590198601040000202101010000202103080000409761660000000000000000000000000000000000000000000000000000000000000000000000000000000000000000000000000000117144000000000000000000346320000000675000000000923508000000117072000000000000000000000000000000101930820000000000000000000000000000000000000000000000000000000000000000000000000000000000000000000000000000000000000000000000000000000000000000
TAX      NM231         Machera       Milton                   42166638B800198001100000202101010000202112310000735503570000125395600000000000000000000000000000000000000000000000000000000000000000000000000000000000000000702864000000000000000000470276000000806263000000000000000000188520000000000000000000000000000000153565980000000000000000000000000000000000000000000000000000000000000000000000000000000000000000000000000000000000000000000000000000000000000000
TAX      NM232         Kombora       Elison                   58196524Q230198208280000202101010000202112310000190776574000323920400000000000000000000000000000000000000000000000000000000000000000000000000000000000000000702864000000000000000000121476000000806263000000323920800000576832000000000000000000000000000000540571860000000000000000000000000000000000000000000000000000000000000000000000000000000000000000000000000000000000000000000000000000000000000000
TAX      NM233         Munyikwa      Munorwei                 04072913D040197506100000202101010000202112310000250086158000399873800000000000000000000000000000000000000000000000000000000000000000000000000000000000000000702864000000000000000000149952050000806263000000399873600000505200000000000000000000000000000000770079470000000000000000000000000000000000000000000000000000000000000000000000000000000000000000000000000000000000000000000000000000000000000000
TAX      NM234         Chibaya       Stockford                07039650S070196711120000202101010000202112310000144429333000236073800000000000000000000000000000000000000000000000000000000000000000000000000000000000000000702864000000000000000000885243000000806263000000236073600000291940000000000000000000000000000000376063080000000000000000000000000000000000000000000000000000000000000000000000000000000000000000000000000000000000000000000000000000000000000000
TAX      NM236         Chamboko      Liveson                  23022355Y830197903190000202101010000202112310000222483834000369410200000000000000000000000000000000000000000000000000000000000000000000000000000000000000000702864000000000000000000131423080000806263000000350456400000218672000000000000000000000000000000678048049999000000000000000000000000000000000000000000000000000000000000000000000000000000000000000000000000000000000000000000000000000000000000
TAX      NM237         Dube          Thulani                  53031410L530197201010000202101010000202102050000193671370000000000000000000000000000000000000000000000000000000000000000000000000000000000000000000000000000585720000000000000000000202460000000450000000000000000000000252720000000000000000000000000000000617998600000000000000000000000000000000000000000000000000000000000000000000000000000000000000000000000000000000000000000000000000000000000000000
TAX      NM238         Shiridzinomwa Iyanayi                  75194129Y750196909020000202101010000202112310000231292580000359834200000000000000000136300910000000000000000000000000000206220000000000000000000000000000000000000000000000000000000134939830000806263000000000000000000614536000000000000000000000000000000801262450000000000000000000000000000000000000000000000000000000000000000000000000000000000000000000000000000000000000000000000000000000000000000
TAX      NM239         Chiwara       Isaki                    08570787X260196905050000202101010000202112310000190526575000323920400000000000000000000000000000000000000000000000000000000000000000000000000000000000000000702864000000000000000000121475530000806263000000000000000000256376000000000000000000000000000000567851620000000000000000000000000000000000000000000000000000000000000000000000000000000000000000000000000000000000000000000000000000000000000000
TAX      NM240         Ndagurwa      Never                    75373072B750198504270000202101010000202112310000135320399000236073800000000000000000000000000000000000000000000000000000000000000000000000000000000000000000702864000000000000000000885243000000806263000000000000000000256376000000000000000000000000000000354600430000000000000000000000000000000000000000000000000000000000000000000000000000000000000000000000000000000000000000000000000000000000000000
